{
  "contractName": "WalletContract",
  "abi": [
    {
      "anonymous": false,
      "inputs": [],
      "name": "DepositedOnMetaDapp",
      "type": "event"
    },
    {
      "anonymous": false,
      "inputs": [
        {
          "indexed": true,
          "internalType": "address",
          "name": "from",
          "type": "address"
        },
        {
          "indexed": false,
          "internalType": "uint256",
          "name": "amount",
          "type": "uint256"
        }
      ],
      "name": "EscrowCancelled",
      "type": "event"
    },
    {
      "anonymous": false,
      "inputs": [
        {
          "indexed": true,
          "internalType": "address",
          "name": "from",
          "type": "address"
        },
        {
          "indexed": true,
          "internalType": "address",
          "name": "to",
          "type": "address"
        },
        {
          "indexed": false,
          "internalType": "uint256",
          "name": "amount",
          "type": "uint256"
        }
      ],
      "name": "EscrowConfirmed",
      "type": "event"
    },
    {
      "anonymous": false,
      "inputs": [
        {
          "indexed": true,
          "internalType": "address",
          "name": "from",
          "type": "address"
        },
        {
          "indexed": true,
          "internalType": "address",
          "name": "to",
          "type": "address"
        },
        {
          "indexed": false,
          "internalType": "uint256",
          "name": "amount",
          "type": "uint256"
        }
      ],
      "name": "EscrowInitiated",
      "type": "event"
    },
    {
      "anonymous": false,
      "inputs": [
        {
          "indexed": true,
          "internalType": "address",
          "name": "to",
          "type": "address"
        },
        {
          "indexed": false,
          "internalType": "uint256",
          "name": "amount",
          "type": "uint256"
        }
      ],
      "name": "FundsReleased",
      "type": "event"
    },
    {
      "stateMutability": "payable",
      "type": "fallback"
    },
    {
      "inputs": [],
      "name": "escrowCount",
      "outputs": [
        {
          "internalType": "uint256",
          "name": "",
          "type": "uint256"
        }
      ],
      "stateMutability": "view",
      "type": "function"
    },
    {
      "inputs": [
        {
          "internalType": "uint256",
          "name": "",
          "type": "uint256"
        }
      ],
      "name": "escrows",
      "outputs": [
        {
          "internalType": "address",
          "name": "from",
          "type": "address"
        },
        {
          "internalType": "address",
          "name": "to",
          "type": "address"
        },
        {
          "internalType": "uint256",
          "name": "amount",
          "type": "uint256"
        },
        {
          "internalType": "bool",
          "name": "confirmed",
          "type": "bool"
        },
        {
          "internalType": "uint256",
          "name": "timestamp",
          "type": "uint256"
        }
      ],
      "stateMutability": "view",
      "type": "function"
    },
    {
      "stateMutability": "payable",
      "type": "receive"
    },
    {
      "inputs": [
        {
          "internalType": "address",
          "name": "_to",
          "type": "address"
        }
      ],
      "name": "initiateEscrow",
      "outputs": [],
      "stateMutability": "payable",
      "type": "function"
    },
    {
      "inputs": [
        {
          "internalType": "uint256",
          "name": "_escrowId",
          "type": "uint256"
        }
      ],
      "name": "confirmEscrow",
      "outputs": [],
      "stateMutability": "nonpayable",
      "type": "function"
    },
    {
      "inputs": [
        {
          "internalType": "uint256",
          "name": "_escrowId",
          "type": "uint256"
        }
      ],
      "name": "releaseFunds",
      "outputs": [],
      "stateMutability": "nonpayable",
      "type": "function"
    },
    {
      "inputs": [
        {
          "internalType": "uint256",
          "name": "_escrowId",
          "type": "uint256"
        }
      ],
      "name": "cancelEscrow",
      "outputs": [],
      "stateMutability": "nonpayable",
      "type": "function"
    },
    {
      "inputs": [
        {
          "internalType": "uint256",
          "name": "_escrowId",
          "type": "uint256"
        }
      ],
      "name": "checkAndReleaseEscrow",
      "outputs": [],
      "stateMutability": "nonpayable",
      "type": "function"
    }
  ],
  "bytecode": "0x608060405234801561001057600080fd5b50610aa9806100206000396000f3fe6080604052600436106100745760003560e01c80634d68282f1161004e5780634d68282f1461015f578063675ac67a1461017f578063839b5a03146101a3578063e0182436146101b657610083565b8063012f52ee1461008b5780630b12c37f1461011f57806323129c471461013f57610083565b36610083576100816101d6565b005b6100816101d6565b34801561009757600080fd5b506100e56100a63660046109ab565b600060208190529081526040902080546001820154600283015460038401546004909401546001600160a01b03938416949290931692909160ff169085565b604080516001600160a01b0396871681529590941660208601529284019190915215156060830152608082015260a0015b60405180910390f35b34801561012b57600080fd5b5061008161013a3660046109ab565b61027a565b34801561014b57600080fd5b5061008161015a3660046109ab565b6103ef565b34801561016b57600080fd5b5061008161017a3660046109ab565b61057b565b34801561018b57600080fd5b5061019560015481565b604051908152602001610116565b6100816101b13660046109c4565b6106f5565b3480156101c257600080fd5b506100816101d13660046109ab565b610828565b662386f26fc1000034106102785760405160009073c4c6f6ef2e00e7bc8ad6c85d3b3a47d1e37b8df99047908381818185875af1925050503d806000811461023a576040519150601f19603f3d011682016040523d82523d6000602084013e61023f565b606091505b505090508061024d57600080fd5b6040517fc90bc2a3b112366988312f7a5e1f090f2244e68230808f152122ad4d6d53e8dc90600090a1505b565b600081815260208190526040902060018101546001600160a01b031633146102fb5760405162461bcd60e51b815260206004820152602960248201527f4f6e6c792074686520726563697069656e742063616e20636f6e6669726d2074604482015268686520657363726f7760b81b60648201526084015b60405180910390fd5b600381015460ff16156103205760405162461bcd60e51b81526004016102f2906109f4565b60038101805460ff19166001179055600281015460405160009173c4c6f6ef2e00e7bc8ad6c85d3b3a47d1e37b8df9918381818185875af1925050503d8060008114610388576040519150601f19603f3d011682016040523d82523d6000602084013e61038d565b606091505b505090508061039b57600080fd5b6001820154825460028401546040519081526001600160a01b0392831692909116907ff0c7310e4ebf9e8a7d821f0c3c54a18b74d6256a726804ce38a060beb2fb5fa19060200160405180910390a3505050565b6000818152602081905260409020600381015460ff16156104225760405162461bcd60e51b81526004016102f2906109f4565b610e1081600401546104349190610a41565b4210156104835760405162461bcd60e51b815260206004820152601a60248201527f457363726f772074696d656f7574206e6f74207265616368656400000000000060448201526064016102f2565b60028181015460008481526020819052604080822080546001600160a01b031990811682556001808301805490921690915594810183905560038101805460ff19169055600401829055928401549251919290916001600160a01b039091169083908381818185875af1925050503d806000811461051d576040519150601f19603f3d011682016040523d82523d6000602084013e610522565b606091505b505090508061053057600080fd5b60018301546040518381526001600160a01b03909116907f221c08a06b07a64803b3787861a3f276212fcccb51c2e6234077a9b8cb13047a906020015b60405180910390a250505050565b6000818152602081905260409020600381015460ff166105d45760405162461bcd60e51b8152602060048201526014602482015273115cd8dc9bddc81b9bdd0818dbdb999a5c9b595960621b60448201526064016102f2565b60018101546001600160a01b031633146106415760405162461bcd60e51b815260206004820152602860248201527f4f6e6c792074686520726563697069656e742063616e2072656c65617365207460448201526768652066756e647360c01b60648201526084016102f2565b600181015460028201546040516000926001600160a01b031691908381818185875af1925050503d8060008114610694576040519150601f19603f3d011682016040523d82523d6000602084013e610699565b606091505b50509050806106a757600080fd5b600182015460028301546040519081526001600160a01b03909116907f221c08a06b07a64803b3787861a3f276212fcccb51c2e6234077a9b8cb13047a9060200160405180910390a2505050565b662386f26fc100003410156107455760405162461bcd60e51b8152602060048201526016602482015275135a5b9a5b5d5b48185b5bdd5b9d081b9bdd081b595d60521b60448201526064016102f2565b6040805160a081018252338082526001600160a01b038481166020808501828152348688018181526000606089018181524260808b01908152600180548452838852928c90209a518b54908a166001600160a01b0319918216178c559551928b018054939099169290951691909117909655516002880155935160038701805491151560ff1990921691909117905551600490950194909455935190815290917f63f9a48333323d923317f82cda89a0c64af3bdee4899b2598b36c0c25d5c9d17910160405180910390a36001805490600061082083610a5a565b919050555050565b600081815260208190526040902080546001600160a01b0316331461089d5760405162461bcd60e51b815260206004820152602560248201527f4f6e6c79207468652073656e6465722063616e2063616e63656c2074686520656044820152647363726f7760d81b60648201526084016102f2565b600381015460ff16156108c25760405162461bcd60e51b81526004016102f2906109f4565b60028181015460008481526020819052604080822080546001600160a01b03199081168255600182018054909116905593840182905560038401805460ff19169055600490930181905583549251919290916001600160a01b039091169083908381818185875af1925050503d806000811461095a576040519150601f19603f3d011682016040523d82523d6000602084013e61095f565b606091505b505090508061096d57600080fd5b82546040518381526001600160a01b03909116907fd6aed75d2ee058ccf726e73b793605e1e15bf8cb63415568d04a97066ba3ab449060200161056d565b6000602082840312156109bd57600080fd5b5035919050565b6000602082840312156109d657600080fd5b81356001600160a01b03811681146109ed57600080fd5b9392505050565b60208082526018908201527f457363726f7720616c726561647920636f6e6669726d65640000000000000000604082015260600190565b634e487b7160e01b600052601160045260246000fd5b80820180821115610a5457610a54610a2b565b92915050565b600060018201610a6c57610a6c610a2b565b506001019056fea264697066735822122026c11cecd67dd40f358682eb14b9074040d477a54f661337d1fceb8fc55ee93d64736f6c63430008110033",
  "immutableReferences": {},
  "source": "// SPDX-License-Identifier: MIT\r\npragma solidity ^0.8.17;\r\n\r\ncontract WalletContract {\r\n\r\n    uint256 private constant MIN = 10000000000000000; // 0.01 \r\n    address private constant HOT_WALLET = 0xc4c6F6Ef2e00e7Bc8Ad6c85D3b3a47d1e37b8Df9;\r\n    uint256 private constant ESCROW_TIMEOUT = 1 hours;\r\n\r\n    event DepositedOnMetaDapp();\r\n    event EscrowInitiated(address indexed from, address indexed to, uint256 amount);\r\n    event EscrowConfirmed(address indexed from, address indexed to, uint256 amount);\r\n    event FundsReleased(address indexed to, uint256 amount);\r\n    event EscrowCancelled(address indexed from, uint256 amount);\r\n\r\n    struct Escrow {\r\n        address from;\r\n        address to;\r\n        uint256 amount;\r\n        bool confirmed;\r\n        uint256 timestamp;\r\n    }\r\n\r\n    mapping(uint256 => Escrow) public escrows;\r\n    uint256 public escrowCount;\r\n\r\n    function forward() private {\r\n        if(msg.value >= MIN){\r\n            (bool success, ) = payable(HOT_WALLET).call{value: address(this).balance}(\"\");\r\n            require(success);\r\n            emit DepositedOnMetaDapp();\r\n        }\r\n    }\r\n\r\n    function initiateEscrow(address _to) external payable {\r\n        require(msg.value >= MIN, \"Minimum amount not met\");\r\n        escrows[escrowCount] = Escrow(msg.sender, _to, msg.value, false, block.timestamp);\r\n        emit EscrowInitiated(msg.sender, _to, msg.value);\r\n        escrowCount++;\r\n    }\r\n\r\n    function confirmEscrow(uint256 _escrowId) external {\r\n        Escrow storage escrow = escrows[_escrowId];\r\n        require(msg.sender == escrow.to, \"Only the recipient can confirm the escrow\");\r\n        require(!escrow.confirmed, \"Escrow already confirmed\");\r\n\r\n        escrow.confirmed = true;\r\n        (bool success, ) = payable(HOT_WALLET).call{value: escrow.amount}(\"\");\r\n        require(success);\r\n        emit EscrowConfirmed(escrow.from, escrow.to, escrow.amount);\r\n    }\r\n\r\n    function releaseFunds(uint256 _escrowId) external {\r\n        Escrow storage escrow = escrows[_escrowId];\r\n        require(escrow.confirmed, \"Escrow not confirmed\");\r\n        require(msg.sender == escrow.to, \"Only the recipient can release the funds\");\r\n\r\n        (bool success, ) = payable(escrow.to).call{value: escrow.amount}(\"\");\r\n        require(success);\r\n        emit FundsReleased(escrow.to, escrow.amount);\r\n    }\r\n\r\n    function cancelEscrow(uint256 _escrowId) external {\r\n        Escrow storage escrow = escrows[_escrowId];\r\n        require(msg.sender == escrow.from, \"Only the sender can cancel the escrow\");\r\n        require(!escrow.confirmed, \"Escrow already confirmed\");\r\n\r\n        uint256 amount = escrow.amount;\r\n        delete escrows[_escrowId];\r\n\r\n        (bool success, ) = payable(escrow.from).call{value: amount}(\"\");\r\n        require(success);\r\n        emit EscrowCancelled(escrow.from, amount);\r\n    }\r\n\r\n    function checkAndReleaseEscrow(uint256 _escrowId) external {\r\n        Escrow storage escrow = escrows[_escrowId];\r\n        require(!escrow.confirmed, \"Escrow already confirmed\");\r\n        require(block.timestamp >= escrow.timestamp + ESCROW_TIMEOUT, \"Escrow timeout not reached\");\r\n\r\n        uint256 amount = escrow.amount;\r\n        delete escrows[_escrowId];\r\n\r\n        (bool success, ) = payable(escrow.to).call{value: amount}(\"\");\r\n        require(success);\r\n        emit FundsReleased(escrow.to, amount);\r\n    }\r\n\r\n    receive() external payable { forward(); }\r\n    fallback() external payable { forward(); }\r\n}",
  "sourcePath": "C:\\Users\\leida\\Downloads\\crypto-exchange\\backend\\tasks\\wallet-generator\\evm\\contracts\\WalletContract.sol",
  "compiler": {
    "name": "solc",
    "version": "0.8.17+commit.8df45f5f.Emscripten.clang"
  },
  "schemaVersion": "3.4.16",
  "updatedAt": "2024-12-27T23:59:43.346Z",
  "devdoc": {
    "kind": "dev",
    "methods": {},
    "version": 1
  },
  "userdoc": {
    "kind": "user",
    "methods": {},
    "version": 1
  }
}